:020000020000FC
:1000000008E007BB0FE008BB03E207B900EE06B942
:1000100002EEE02F01E0F02FC89501BEB09B74C046
:1000200014D082D001D0FCCFC39850EA60E096D0C3
:10003000C39A542D652D92D0C398562D672D8ED01E
:10004000C39A50ED67E08AD0089515B1163F10F0BD
:1000500000E008951B3E10F001E00895153E10F0F9
:1000600002E008951E3D10F003E00895183D10F0E1
:1000700004E00895123D10F005E008951C3C10F0D6
:1000800006E00895143C10F007E008951D3B10F0C1
:1000900008E00895163B10F009E008951F3A10F0AB
:1000A0000AE00895163A10F00BE00895113A10F0A6
:1000B0000CE008951B3910F00DE00895123910F08E
:1000C0000EE008951D3710F00FE00895163710F078
:1000D00000E10895103710F001E10895183610F08E
:1000E00002E10895103610F003E108951A3510F07A
:1000F00004E10895133510F005E10895123510F06C
:1001000006E1089501E5089507E10ED024E18CDFB2
:100110002A95E9F737E1032F07D021EE85DF2A95ED
:10012000E9F73A95C1F7F0CF000F000F1EE7E12F76
:1001300011E0F12FE00F00E0F01F01E010E0C895A2
:10014000402CE00FF11FC895502CE00FF11FC8950F
:10015000602CE00FF11FC895702C0895515060403D
:100160004FE208D051506040D9F74DE20000000046
:1001700001D0089500004A95E9F700000895BC00F9
:10018000C000D200D800D800DE00E000E200E400A9
:10019000EA00EA00F000F200F600F800FC00FE00C1
:1001A000040104010A010A011001100118011801DB
:1001B0001E011E01260126012C012C0132013201F3
:1001C0003A013A0140014001460148014E014E0109
:1001D000560156015C015C01640164016A01700111
:0401E00076013C0068
:00000001FF
