:020000020000FC
:1000000008E007BB0FE008BB03E207B900EE06B942
:100010000EEFE02F03E0F02FC89501BEB09B74C037
:1000200014D082D001D0FCCFC39850EA60E096D0C3
:10003000C39A542D652D92D0C398562D672D8ED01E
:10004000C39A50ED67E08AD0089515B1193D10F0BC
:1000500000E00895153D10F001E008951B3C10F0FC
:1000600002E00895103C10F003E00895173B10F0F3
:1000700004E008951E3A10F005E00895153A10F0D6
:1000800006E00895163910F007E00895123910F0CF
:1000900008E008951A3810F009E00895113810F0BA
:1000A0000AE00895193710F00BE00895133710F0A7
:1000B0000CE008951C3610F00DE008951D3510F089
:1000C0000EE00895113510F00FE008951B3410F084
:1000D00000E10895153410F001E108951F3310F088
:1000E00002E108951A3310F003E10895153310F07A
:1000F00004E10895123310F005E10895113310F072
:1001000006E1089507E1089507E10ED024E18CDFB0
:100110002A95E9F737E1032F07D021EE85DF2A95ED
:10012000E9F73A95C1F7F0CF000F000F1AE9E12F78
:1001300013E0F12FE00F00E0F01F01E010E0C895A0
:10014000402CE00FF11FC895502CE00FF11FC8950F
:10015000602CE00FF11FC895702C0895515060403D
:100160004FE208D051506040D9F74DE20000000046
:0E01700001D0089500004A95E9F700000895B7
:10039A00BC00C000D200D800D800DE00E000E200B5
:1003AA00E400EA00EA00F000F200F600F800FC00BF
:1003BA00FE00040104010A010A01100110011801DA
:1003CA0018011E011E01260126012C012C013201F1
:1003DA0032013A013A0140014001460148014E0109
:1003EA004E01560156015C015C01640164016A0117
:0603FA007001760178009D
:00000001FF
